{"abi":[{"type":"constructor","inputs":[{"name":"_platformWallet","type":"address","internalType":"address"}],"stateMutability":"nonpayable"},{"type":"receive","stateMutability":"payable"},{"type":"function","name":"BASIS_POINTS","inputs":[],"outputs":[{"name":"","type":"uint256","internalType":"uint256"}],"stateMutability":"view"},{"type":"function","name":"MAX_ROYALTY","inputs":[],"outputs":[{"name":"","type":"uint256","internalType":"uint256"}],"stateMutability":"view"},{"type":"function","name":"PLATFORM_FEE","inputs":[],"outputs":[{"name":"","type":"uint256","internalType":"uint256"}],"stateMutability":"view"},{"type":"function","name":"accessTokens","inputs":[{"name":"","type":"uint256","internalType":"uint256"}],"outputs":[{"name":"ipTokenId","type":"uint256","internalType":"uint256"},{"name":"owner","type":"address","internalType":"address"},{"name":"purchaseTime","type":"uint256","internalType":"uint256"},{"name":"expiryTime","type":"uint256","internalType":"uint256"},{"name":"active","type":"bool","internalType":"bool"}],"stateMutability":"view"},{"type":"function","name":"auctions","inputs":[{"name":"","type":"uint256","internalType":"uint256"}],"outputs":[{"name":"ipTokenId","type":"uint256","internalType":"uint256"},{"name":"seller","type":"address","internalType":"address"},{"name":"startingBid","type":"uint256","internalType":"uint256"},{"name":"currentBid","type":"uint256","internalType":"uint256"},{"name":"currentBidder","type":"address","internalType":"address"},{"name":"endTime","type":"uint256","internalType":"uint256"},{"name":"active","type":"bool","internalType":"bool"},{"name":"settled","type":"bool","internalType":"bool"}],"stateMutability":"view"},{"type":"function","name":"buyAccess","inputs":[{"name":"_ipTokenId","type":"uint256","internalType":"uint256"},{"name":"_duration","type":"uint256","internalType":"uint256"}],"outputs":[],"stateMutability":"payable"},{"type":"function","name":"buyLotteryTickets","inputs":[{"name":"_lotteryId","type":"uint256","internalType":"uint256"},{"name":"_numTickets","type":"uint256","internalType":"uint256"}],"outputs":[],"stateMutability":"payable"},{"type":"function","name":"checkAccess","inputs":[{"name":"_ipTokenId","type":"uint256","internalType":"uint256"},{"name":"_user","type":"address","internalType":"address"}],"outputs":[{"name":"","type":"bool","internalType":"bool"}],"stateMutability":"view"},{"type":"function","name":"createAuction","inputs":[{"name":"_ipTokenId","type":"uint256","internalType":"uint256"},{"name":"_startingBid","type":"uint256","internalType":"uint256"},{"name":"_duration","type":"uint256","internalType":"uint256"}],"outputs":[{"name":"","type":"uint256","internalType":"uint256"}],"stateMutability":"nonpayable"},{"type":"function","name":"createIP","inputs":[{"name":"_name","type":"string","internalType":"string"},{"name":"_description","type":"string","internalType":"string"},{"name":"_category","type":"string","internalType":"string"},{"name":"_contentHash","type":"string","internalType":"string"},{"name":"_licenseTerms","type":"string","internalType":"string"},{"name":"_price","type":"uint256","internalType":"uint256"},{"name":"_totalSupply","type":"uint256","internalType":"uint256"}],"outputs":[{"name":"","type":"uint256","internalType":"uint256"}],"stateMutability":"nonpayable"},{"type":"function","name":"createLottery","inputs":[{"name":"_ipTokenId","type":"uint256","internalType":"uint256"},{"name":"_ticketPrice","type":"uint256","internalType":"uint256"},{"name":"_maxTickets","type":"uint256","internalType":"uint256"},{"name":"_duration","type":"uint256","internalType":"uint256"}],"outputs":[{"name":"","type":"uint256","internalType":"uint256"}],"stateMutability":"nonpayable"},{"type":"function","name":"creatorTokens","inputs":[{"name":"","type":"address","internalType":"address"},{"name":"","type":"uint256","internalType":"uint256"}],"outputs":[{"name":"","type":"uint256","internalType":"uint256"}],"stateMutability":"view"},{"type":"function","name":"drawLottery","inputs":[{"name":"_lotteryId","type":"uint256","internalType":"uint256"}],"outputs":[],"stateMutability":"nonpayable"},{"type":"function","name":"getAccessToken","inputs":[{"name":"_accessTokenId","type":"uint256","internalType":"uint256"}],"outputs":[{"name":"","type":"tuple","internalType":"struct IPMarketplace.AccessToken","components":[{"name":"ipTokenId","type":"uint256","internalType":"uint256"},{"name":"owner","type":"address","internalType":"address"},{"name":"purchaseTime","type":"uint256","internalType":"uint256"},{"name":"expiryTime","type":"uint256","internalType":"uint256"},{"name":"active","type":"bool","internalType":"bool"}]}],"stateMutability":"view"},{"type":"function","name":"getAuction","inputs":[{"name":"_auctionId","type":"uint256","internalType":"uint256"}],"outputs":[{"name":"","type":"tuple","internalType":"struct IPMarketplace.Auction","components":[{"name":"ipTokenId","type":"uint256","internalType":"uint256"},{"name":"seller","type":"address","internalType":"address"},{"name":"startingBid","type":"uint256","internalType":"uint256"},{"name":"currentBid","type":"uint256","internalType":"uint256"},{"name":"currentBidder","type":"address","internalType":"address"},{"name":"endTime","type":"uint256","internalType":"uint256"},{"name":"active","type":"bool","internalType":"bool"},{"name":"settled","type":"bool","internalType":"bool"}]}],"stateMutability":"view"},{"type":"function","name":"getCreatorTokens","inputs":[{"name":"_creator","type":"address","internalType":"address"}],"outputs":[{"name":"","type":"uint256[]","internalType":"uint256[]"}],"stateMutability":"view"},{"type":"function","name":"getIPToken","inputs":[{"name":"_tokenId","type":"uint256","internalType":"uint256"}],"outputs":[{"name":"","type":"tuple","internalType":"struct IPMarketplace.IPMetadata","components":[{"name":"name","type":"string","internalType":"string"},{"name":"description","type":"string","internalType":"string"},{"name":"category","type":"string","internalType":"string"},{"name":"contentHash","type":"string","internalType":"string"},{"name":"licenseTerms","type":"string","internalType":"string"},{"name":"price","type":"uint256","internalType":"uint256"},{"name":"totalSupply","type":"uint256","internalType":"uint256"},{"name":"soldTokens","type":"uint256","internalType":"uint256"},{"name":"creator","type":"address","internalType":"address"},{"name":"active","type":"bool","internalType":"bool"},{"name":"createdAt","type":"uint256","internalType":"uint256"}]}],"stateMutability":"view"},{"type":"function","name":"getUserAccessTokens","inputs":[{"name":"_user","type":"address","internalType":"address"}],"outputs":[{"name":"","type":"uint256[]","internalType":"uint256[]"}],"stateMutability":"view"},{"type":"function","name":"getUserLotteryTickets","inputs":[{"name":"_lotteryId","type":"uint256","internalType":"uint256"},{"name":"_user","type":"address","internalType":"address"}],"outputs":[{"name":"","type":"uint256[]","internalType":"uint256[]"}],"stateMutability":"view"},{"type":"function","name":"hasAccess","inputs":[{"name":"","type":"uint256","internalType":"uint256"},{"name":"","type":"address","internalType":"address"}],"outputs":[{"name":"","type":"bool","internalType":"bool"}],"stateMutability":"view"},{"type":"function","name":"ipTokens","inputs":[{"name":"","type":"uint256","internalType":"uint256"}],"outputs":[{"name":"name","type":"string","internalType":"string"},{"name":"description","type":"string","internalType":"string"},{"name":"category","type":"string","internalType":"string"},{"name":"contentHash","type":"string","internalType":"string"},{"name":"licenseTerms","type":"string","internalType":"string"},{"name":"price","type":"uint256","internalType":"uint256"},{"name":"totalSupply","type":"uint256","internalType":"uint256"},{"name":"soldTokens","type":"uint256","internalType":"uint256"},{"name":"creator","type":"address","internalType":"address"},{"name":"active","type":"bool","internalType":"bool"},{"name":"createdAt","type":"uint256","internalType":"uint256"}],"stateMutability":"view"},{"type":"function","name":"lotteries","inputs":[{"name":"","type":"uint256","internalType":"uint256"}],"outputs":[{"name":"ipTokenId","type":"uint256","internalType":"uint256"},{"name":"ticketPrice","type":"uint256","internalType":"uint256"},{"name":"maxTickets","type":"uint256","internalType":"uint256"},{"name":"soldTickets","type":"uint256","internalType":"uint256"},{"name":"drawTime","type":"uint256","internalType":"uint256"},{"name":"winner","type":"address","internalType":"address"},{"name":"active","type":"bool","internalType":"bool"},{"name":"drawn","type":"bool","internalType":"bool"}],"stateMutability":"view"},{"type":"function","name":"nextAccessTokenId","inputs":[],"outputs":[{"name":"","type":"uint256","internalType":"uint256"}],"stateMutability":"view"},{"type":"function","name":"nextAuctionId","inputs":[],"outputs":[{"name":"","type":"uint256","internalType":"uint256"}],"stateMutability":"view"},{"type":"function","name":"nextIPTokenId","inputs":[],"outputs":[{"name":"","type":"uint256","internalType":"uint256"}],"stateMutability":"view"},{"type":"function","name":"nextLotteryId","inputs":[],"outputs":[{"name":"","type":"uint256","internalType":"uint256"}],"stateMutability":"view"},{"type":"function","name":"pauseIPToken","inputs":[{"name":"_tokenId","type":"uint256","internalType":"uint256"}],"outputs":[],"stateMutability":"nonpayable"},{"type":"function","name":"placeBid","inputs":[{"name":"_auctionId","type":"uint256","internalType":"uint256"}],"outputs":[],"stateMutability":"payable"},{"type":"function","name":"platformWallet","inputs":[],"outputs":[{"name":"","type":"address","internalType":"address"}],"stateMutability":"view"},{"type":"function","name":"settleAuction","inputs":[{"name":"_auctionId","type":"uint256","internalType":"uint256"}],"outputs":[],"stateMutability":"nonpayable"},{"type":"function","name":"unpauseIPToken","inputs":[{"name":"_tokenId","type":"uint256","internalType":"uint256"}],"outputs":[],"stateMutability":"nonpayable"},{"type":"function","name":"updatePlatformWallet","inputs":[{"name":"_newWallet","type":"address","internalType":"address"}],"outputs":[],"stateMutability":"nonpayable"},{"type":"function","name":"userAccessTokens","inputs":[{"name":"","type":"address","internalType":"address"},{"name":"","type":"uint256","internalType":"uint256"}],"outputs":[{"name":"","type":"uint256","internalType":"uint256"}],"stateMutability":"view"},{"type":"event","name":"AccessPurchased","inputs":[{"name":"accessTokenId","type":"uint256","indexed":true,"internalType":"uint256"},{"name":"ipTokenId","type":"uint256","indexed":true,"internalType":"uint256"},{"name":"buyer","type":"address","indexed":true,"internalType":"address"},{"name":"price","type":"uint256","indexed":false,"internalType":"uint256"}],"anonymous":false},{"type":"event","name":"AuctionCreated","inputs":[{"name":"auctionId","type":"uint256","indexed":true,"internalType":"uint256"},{"name":"ipTokenId","type":"uint256","indexed":true,"internalType":"uint256"},{"name":"seller","type":"address","indexed":true,"internalType":"address"},{"name":"startingBid","type":"uint256","indexed":false,"internalType":"uint256"},{"name":"endTime","type":"uint256","indexed":false,"internalType":"uint256"}],"anonymous":false},{"type":"event","name":"AuctionSettled","inputs":[{"name":"auctionId","type":"uint256","indexed":true,"internalType":"uint256"},{"name":"winner","type":"address","indexed":true,"internalType":"address"},{"name":"amount","type":"uint256","indexed":false,"internalType":"uint256"}],"anonymous":false},{"type":"event","name":"BidPlaced","inputs":[{"name":"auctionId","type":"uint256","indexed":true,"internalType":"uint256"},{"name":"bidder","type":"address","indexed":true,"internalType":"address"},{"name":"amount","type":"uint256","indexed":false,"internalType":"uint256"}],"anonymous":false},{"type":"event","name":"IPCreated","inputs":[{"name":"tokenId","type":"uint256","indexed":true,"internalType":"uint256"},{"name":"creator","type":"address","indexed":true,"internalType":"address"},{"name":"name","type":"string","indexed":false,"internalType":"string"},{"name":"category","type":"string","indexed":false,"internalType":"string"},{"name":"price","type":"uint256","indexed":false,"internalType":"uint256"},{"name":"totalSupply","type":"uint256","indexed":false,"internalType":"uint256"}],"anonymous":false},{"type":"event","name":"LotteryCreated","inputs":[{"name":"lotteryId","type":"uint256","indexed":true,"internalType":"uint256"},{"name":"ipTokenId","type":"uint256","indexed":true,"internalType":"uint256"},{"name":"ticketPrice","type":"uint256","indexed":false,"internalType":"uint256"},{"name":"maxTickets","type":"uint256","indexed":false,"internalType":"uint256"},{"name":"drawTime","type":"uint256","indexed":false,"internalType":"uint256"}],"anonymous":false},{"type":"event","name":"LotteryDrawn","inputs":[{"name":"lotteryId","type":"uint256","indexed":true,"internalType":"uint256"},{"name":"winner","type":"address","indexed":true,"internalType":"address"},{"name":"winningTicket","type":"uint256","indexed":false,"internalType":"uint256"}],"anonymous":false},{"type":"event","name":"LotteryTicketPurchased","inputs":[{"name":"lotteryId","type":"uint256","indexed":true,"internalType":"uint256"},{"name":"buyer","type":"address","indexed":true,"internalType":"address"},{"name":"ticketNumber","type":"uint256","indexed":false,"internalType":"uint256"}],"anonymous":false},{"type":"error","name":"ReentrancyGuardReentrantCall","inputs":[]}],"bytecode":{"object":"0x6080604052600160085560016009556001600a556001600b55348015610023575f5ffd5b50604051615e68380380615e68833981810160405281019061004591906100f0565b60015f8190555080600c5f6101000a81548173ffffffffffffffffffffffffffffffffffffffff021916908373ffffffffffffffffffffffffffffffffffffffff1602179055505061011b565b5f5ffd5b5f73ffffffffffffffffffffffffffffffffffffffff82169050919050565b5f6100bf82610096565b9050919050565b6100cf816100b5565b81146100d9575f5ffd5b50565b5f815190506100ea816100c6565b92915050565b5f6020828403121561010557610104610092565b5b5f610112848285016100dc565b91505092915050565b615d40806101285f395ff3fe6080604052600436106101f0575f3560e01c806378bd79351161010c578063d00e79781161009f578063dc075b801161006e578063dc075b80146107e8578063e1f1c4a714610812578063e303a92b1461083c578063fa2af9da14610864578063fc5284821461088e57610230565b8063d00e79781461072a578063d13c870314610746578063d83e5f4d14610782578063db3fa4cc146107ac57610230565b80639979ef45116100db5780639979ef451461066e578063ada4ef301461068a578063cda4beef146106b2578063ced14198146106ee57610230565b806378bd7935146105865780637fdbed37146105c25780638009df6814610608578063991acf6e1461063257610230565b806341a3e47511610184578063571a26a011610153578063571a26a0146104a1578063582e62c3146104e457806374abfa541461050e57806375f22a571461054a57610230565b806341a3e475146103c557806344da04a714610401578063499667e8146104295780634a5b3fd31461046557610230565b8063298b802b116101c0578063298b802b1461031b5780632cdc2534146103575780632e9936111461037357806334fbc9a11461039b57610230565b8062af701f146102345780630414a713146102745780631398e076146102b057806320f1fd9a146102f357610230565b36610230576040517f08c379a000000000000000000000000000000000000000000000000000000000815260040161022790613dde565b60405180910390fd5b5f5ffd5b34801561023f575f5ffd5b5061025a60048036038101906102559190613e40565b6108b8565b60405161026b959493929190613ed3565b60405180910390f35b34801561027f575f5ffd5b5061029a60048036038101906102959190613e40565b610915565b6040516102a791906140c9565b60405180910390f35b3480156102bb575f5ffd5b506102d660048036038101906102d19190613e40565b610ca8565b6040516102ea9897969594939291906140e9565b60405180910390f35b3480156102fe575f5ffd5b5061031960048036038101906103149190613e40565b610d25565b005b348015610326575f5ffd5b50610341600480360381019061033c9190614291565b610df7565b60405161034e91906143ba565b60405180910390f35b610371600480360381019061036c91906143d3565b611156565b005b34801561037e575f5ffd5b5061039960048036038101906103949190613e40565b611743565b005b3480156103a6575f5ffd5b506103af611d48565b6040516103bc91906143ba565b60405180910390f35b3480156103d0575f5ffd5b506103eb60048036038101906103e6919061443b565b611d4d565b6040516103f8919061450e565b60405180910390f35b34801561040c575f5ffd5b5061042760048036038101906104229190613e40565b611de0565b005b348015610434575f5ffd5b5061044f600480360381019061044a919061452e565b611eb2565b60405161045c919061450e565b60405180910390f35b348015610470575f5ffd5b5061048b6004803603810190610486919061456c565b611f58565b60405161049891906143ba565b60405180910390f35b3480156104ac575f5ffd5b506104c760048036038101906104c29190613e40565b611f83565b6040516104db9897969594939291906145aa565b60405180910390f35b3480156104ef575f5ffd5b506104f861201e565b60405161050591906143ba565b60405180910390f35b348015610519575f5ffd5b50610534600480360381019061052f919061443b565b612024565b604051610541919061450e565b60405180910390f35b348015610555575f5ffd5b50610570600480360381019061056b9190614626565b6120b7565b60405161057d91906143ba565b60405180910390f35b348015610591575f5ffd5b506105ac60048036038101906105a79190613e40565b6123b2565b6040516105b9919061472a565b60405180910390f35b3480156105cd575f5ffd5b506105e860048036038101906105e39190613e40565b6124e4565b6040516105ff9b9a9998979695949392919061477c565b60405180910390f35b348015610613575f5ffd5b5061061c612804565b60405161062991906143ba565b60405180910390f35b34801561063d575f5ffd5b5061065860048036038101906106539190613e40565b61280a565b60405161066591906148ae565b60405180910390f35b61068860048036038101906106839190613e40565b6128c1565b005b348015610695575f5ffd5b506106b060048036038101906106ab919061443b565b612c49565b005b3480156106bd575f5ffd5b506106d860048036038101906106d391906148c7565b612d89565b6040516106e591906143ba565b60405180910390f35b3480156106f9575f5ffd5b50610714600480360381019061070f919061452e565b61310a565b6040516107219190614917565b60405180910390f35b610744600480360381019061073f91906143d3565b613134565b005b348015610751575f5ffd5b5061076c6004803603810190610767919061452e565b613511565b6040516107799190614917565b60405180910390f35b34801561078d575f5ffd5b50610796613573565b6040516107a391906143ba565b60405180910390f35b3480156107b7575f5ffd5b506107d260048036038101906107cd919061456c565b613579565b6040516107df91906143ba565b60405180910390f35b3480156107f3575f5ffd5b506107fc6135a4565b60405161080991906143ba565b60405180910390f35b34801561081d575f5ffd5b506108266135aa565b60405161083391906143ba565b60405180910390f35b348015610847575f5ffd5b50610862600480360381019061085d9190613e40565b6135b0565b005b34801561086f575f5ffd5b50610878613bf1565b6040516108859190614930565b60405180910390f35b348015610899575f5ffd5b506108a2613c16565b6040516108af91906143ba565b60405180910390f35b6002602052805f5260405f205f91509050805f015490806001015f9054906101000a900473ffffffffffffffffffffffffffffffffffffffff1690806002015490806003015490806004015f9054906101000a900460ff16905085565b61091d613c69565b60015f8381526020019081526020015f20604051806101600160405290815f8201805461094990614976565b80601f016020809104026020016040519081016040528092919081815260200182805461097590614976565b80156109c05780601f10610997576101008083540402835291602001916109c0565b820191905f5260205f20905b8154815290600101906020018083116109a357829003601f168201915b505050505081526020016001820180546109d990614976565b80601f0160208091040260200160405190810160405280929190818152602001828054610a0590614976565b8015610a505780601f10610a2757610100808354040283529160200191610a50565b820191905f5260205f20905b815481529060010190602001808311610a3357829003601f168201915b50505050508152602001600282018054610a6990614976565b80601f0160208091040260200160405190810160405280929190818152602001828054610a9590614976565b8015610ae05780601f10610ab757610100808354040283529160200191610ae0565b820191905f5260205f20905b815481529060010190602001808311610ac357829003601f168201915b50505050508152602001600382018054610af990614976565b80601f0160208091040260200160405190810160405280929190818152602001828054610b2590614976565b8015610b705780601f10610b4757610100808354040283529160200191610b70565b820191905f5260205f20905b815481529060010190602001808311610b5357829003601f168201915b50505050508152602001600482018054610b8990614976565b80601f0160208091040260200160405190810160405280929190818152602001828054610bb590614976565b8015610c005780601f10610bd757610100808354040283529160200191610c00565b820191905f5260205f20905b815481529060010190602001808311610be357829003601f168201915b50505050508152602001600582015481526020016006820154815260200160078201548152602001600882015f9054906101000a900473ffffffffffffffffffffffffffffffffffffffff1673ffffffffffffffffffffffffffffffffffffffff1673ffffffffffffffffffffffffffffffffffffffff1681526020016008820160149054906101000a900460ff161515151581526020016009820154815250509050919050565b6004602052805f5260405f205f91509050805f015490806001015490806002015490806003015490806004015490806005015f9054906101000a900473ffffffffffffffffffffffffffffffffffffffff16908060050160149054906101000a900460ff16908060050160159054906101000a900460ff16905088565b803373ffffffffffffffffffffffffffffffffffffffff1660015f8381526020019081526020015f206008015f9054906101000a900473ffffffffffffffffffffffffffffffffffffffff1673ffffffffffffffffffffffffffffffffffffffff1614610dc7576040517f08c379a0000000000000000000000000000000000000000000000000000000008152600401610dbe906149f0565b60405180910390fd5b5f60015f8481526020019081526020015f2060080160146101000a81548160ff0219169083151502179055505050565b5f5f885111610e3b576040517f08c379a0000000000000000000000000000000000000000000000000000000008152600401610e3290614a58565b60405180910390fd5b5f855111610e7e576040517f08c379a0000000000000000000000000000000000000000000000000000000008152600401610e7590614ac0565b60405180910390fd5b5f8311610ec0576040517f08c379a0000000000000000000000000000000000000000000000000000000008152600401610eb790614b28565b60405180910390fd5b5f8211610f02576040517f08c379a0000000000000000000000000000000000000000000000000000000008152600401610ef990614bb6565b60405180910390fd5b5f60085f815480929190610f1590614c01565b9190505590506040518061016001604052808a81526020018981526020018881526020018781526020018681526020018581526020018481526020015f81526020013373ffffffffffffffffffffffffffffffffffffffff1681526020016001151581526020014281525060015f8381526020019081526020015f205f820151815f019081610fa49190614de8565b506020820151816001019081610fba9190614de8565b506040820151816002019081610fd09190614de8565b506060820151816003019081610fe69190614de8565b506080820151816004019081610ffc9190614de8565b5060a0820151816005015560c0820151816006015560e08201518160070155610100820151816008015f6101000a81548173ffffffffffffffffffffffffffffffffffffffff021916908373ffffffffffffffffffffffffffffffffffffffff1602179055506101208201518160080160146101000a81548160ff021916908315150217905550610140820151816009015590505060055f3373ffffffffffffffffffffffffffffffffffffffff1673ffffffffffffffffffffffffffffffffffffffff1681526020019081526020015f2081908060018154018082558091505060019003905f5260205f20015f90919091909150553373ffffffffffffffffffffffffffffffffffffffff16817f6a93f34e3b123554c8275a655353f210e2adceac96d023b1da0b6cca553693918b8a888860405161113f9493929190614eb7565b60405180910390a380915050979650505050505050565b8160015f8281526020019081526020015f2060080160149054906101000a900460ff166111b8576040517f08c379a00000000000000000000000000000000000000000000000000000000081526004016111af90614f78565b60405180910390fd5b6111c0613c1c565b5f60015f8581526020019081526020015f209050806006015481600701541061121e576040517f08c379a000000000000000000000000000000000000000000000000000000000815260040161121590614fe0565b60405180910390fd5b8060050154341015611265576040517f08c379a000000000000000000000000000000000000000000000000000000000815260040161125c90615048565b60405180910390fd5b5f60095f81548092919061127890614c01565b9190505590505f5f851161128c575f611299565b84426112989190615066565b5b90506040518060a001604052808781526020013373ffffffffffffffffffffffffffffffffffffffff1681526020014281526020018281526020016001151581525060025f8481526020019081526020015f205f820151815f01556020820151816001015f6101000a81548173ffffffffffffffffffffffffffffffffffffffff021916908373ffffffffffffffffffffffffffffffffffffffff16021790555060408201518160020155606082015181600301556080820151816004015f6101000a81548160ff021916908315150217905550905050600160075f8881526020019081526020015f205f3373ffffffffffffffffffffffffffffffffffffffff1673ffffffffffffffffffffffffffffffffffffffff1681526020019081526020015f205f6101000a81548160ff02191690831515021790555060065f3373ffffffffffffffffffffffffffffffffffffffff1673ffffffffffffffffffffffffffffffffffffffff1681526020019081526020015f2082908060018154018082558091505060019003905f5260205f20015f9091909190915055826007015f81548092919061144990614c01565b91905055505f61271060fa85600501546114639190615099565b61146d9190615107565b90505f8185600501546114809190615137565b90505f600c5f9054906101000a900473ffffffffffffffffffffffffffffffffffffffff1673ffffffffffffffffffffffffffffffffffffffff16836040516114c890615197565b5f6040518083038185875af1925050503d805f8114611502576040519150601f19603f3d011682016040523d82523d5f602084013e611507565b606091505b505090508061154b576040517f08c379a0000000000000000000000000000000000000000000000000000000008152600401611542906151f5565b60405180910390fd5b5f866008015f9054906101000a900473ffffffffffffffffffffffffffffffffffffffff1673ffffffffffffffffffffffffffffffffffffffff168360405161159390615197565b5f6040518083038185875af1925050503d805f81146115cd576040519150601f19603f3d011682016040523d82523d5f602084013e6115d2565b606091505b5050905080611616576040517f08c379a000000000000000000000000000000000000000000000000000000000815260040161160d9061525d565b60405180910390fd5b86600501543411156116db575f3373ffffffffffffffffffffffffffffffffffffffff1688600501543461164a9190615137565b60405161165690615197565b5f6040518083038185875af1925050503d805f8114611690576040519150601f19603f3d011682016040523d82523d5f602084013e611695565b606091505b50509050806116d9576040517f08c379a00000000000000000000000000000000000000000000000000000000081526004016116d0906152c5565b60405180910390fd5b505b3373ffffffffffffffffffffffffffffffffffffffff168a877fca8b919b7ad626f10fa4e659ed1e084213af2ffedc91544e6846d4c135a097758a6005015460405161172791906143ba565b60405180910390a45050505050505061173e613c60565b505050565b61174b613c1c565b5f60035f8381526020019081526020015f209050806006015f9054906101000a900460ff166117af576040517f08c379a00000000000000000000000000000000000000000000000000000000081526004016117a69061532d565b60405180910390fd5b80600501544210156117f6576040517f08c379a00000000000000000000000000000000000000000000000000000000081526004016117ed90615395565b60405180910390fd5b8060060160019054906101000a900460ff1615611848576040517f08c379a000000000000000000000000000000000000000000000000000000000815260040161183f906153fd565b60405180910390fd5b5f816006015f6101000a81548160ff02191690831515021790555060018160060160016101000a81548160ff0219169083151502179055505f73ffffffffffffffffffffffffffffffffffffffff16816004015f9054906101000a900473ffffffffffffffffffffffffffffffffffffffff1673ffffffffffffffffffffffffffffffffffffffff1614611d3c575f60095f8154809291906118e990614c01565b9190505590506040518060a00160405280835f01548152602001836004015f9054906101000a900473ffffffffffffffffffffffffffffffffffffffff1673ffffffffffffffffffffffffffffffffffffffff1681526020014281526020015f81526020016001151581525060025f8381526020019081526020015f205f820151815f01556020820151816001015f6101000a81548173ffffffffffffffffffffffffffffffffffffffff021916908373ffffffffffffffffffffffffffffffffffffffff16021790555060408201518160020155606082015181600301556080820151816004015f6101000a81548160ff021916908315150217905550905050600160075f845f015481526020019081526020015f205f846004015f9054906101000a900473ffffffffffffffffffffffffffffffffffffffff1673ffffffffffffffffffffffffffffffffffffffff1673ffffffffffffffffffffffffffffffffffffffff1681526020019081526020015f205f6101000a81548160ff02191690831515021790555060065f836004015f9054906101000a900473ffffffffffffffffffffffffffffffffffffffff1673ffffffffffffffffffffffffffffffffffffffff1673ffffffffffffffffffffffffffffffffffffffff1681526020019081526020015f2081908060018154018082558091505060019003905f5260205f20015f90919091909150555f61271060fa8460030154611b0d9190615099565b611b179190615107565b90505f818460030154611b2a9190615137565b90505f600c5f9054906101000a900473ffffffffffffffffffffffffffffffffffffffff1673ffffffffffffffffffffffffffffffffffffffff1683604051611b7290615197565b5f6040518083038185875af1925050503d805f8114611bac576040519150601f19603f3d011682016040523d82523d5f602084013e611bb1565b606091505b5050905080611bf5576040517f08c379a0000000000000000000000000000000000000000000000000000000008152600401611bec906151f5565b60405180910390fd5b5f856001015f9054906101000a900473ffffffffffffffffffffffffffffffffffffffff1673ffffffffffffffffffffffffffffffffffffffff1683604051611c3d90615197565b5f6040518083038185875af1925050503d805f8114611c77576040519150601f19603f3d011682016040523d82523d5f602084013e611c7c565b606091505b5050905080611cc0576040517f08c379a0000000000000000000000000000000000000000000000000000000008152600401611cb790615465565b60405180910390fd5b856004015f9054906101000a900473ffffffffffffffffffffffffffffffffffffffff1673ffffffffffffffffffffffffffffffffffffffff16877fc9f72b276a388619c6d185d146697036241880c36654b1a3ffdad07c24038d998860030154604051611d2e91906143ba565b60405180910390a350505050505b50611d45613c60565b50565b60fa81565b606060065f8373ffffffffffffffffffffffffffffffffffffffff1673ffffffffffffffffffffffffffffffffffffffff1681526020019081526020015f20805480602002602001604051908101604052809291908181526020018280548015611dd457602002820191905f5260205f20905b815481526020019060010190808311611dc0575b50505050509050919050565b803373ffffffffffffffffffffffffffffffffffffffff1660015f8381526020019081526020015f206008015f9054906101000a900473ffffffffffffffffffffffffffffffffffffffff1673ffffffffffffffffffffffffffffffffffffffff1614611e82576040517f08c379a0000000000000000000000000000000000000000000000000000000008152600401611e79906149f0565b60405180910390fd5b6001805f8481526020019081526020015f2060080160146101000a81548160ff0219169083151502179055505050565b606060045f8481526020019081526020015f206007015f8373ffffffffffffffffffffffffffffffffffffffff1673ffffffffffffffffffffffffffffffffffffffff1681526020019081526020015f20805480602002602001604051908101604052809291908181526020018280548015611f4b57602002820191905f5260205f20905b815481526020019060010190808311611f37575b5050505050905092915050565b6006602052815f5260405f208181548110611f71575f80fd5b905f5260205f20015f91509150505481565b6003602052805f5260405f205f91509050805f015490806001015f9054906101000a900473ffffffffffffffffffffffffffffffffffffffff1690806002015490806003015490806004015f9054906101000a900473ffffffffffffffffffffffffffffffffffffffff1690806005015490806006015f9054906101000a900460ff16908060060160019054906101000a900460ff16905088565b60085481565b606060055f8373ffffffffffffffffffffffffffffffffffffffff1673ffffffffffffffffffffffffffffffffffffffff1681526020019081526020015f208054806020026020016040519081016040528092919081815260200182805480156120ab57602002820191905f5260205f20905b815481526020019060010190808311612097575b50505050509050919050565b5f8460015f8281526020019081526020015f2060080160149054906101000a900460ff1661211a576040517f08c379a000000000000000000000000000000000000000000000000000000000815260040161211190614f78565b60405180910390fd5b853373ffffffffffffffffffffffffffffffffffffffff1660015f8381526020019081526020015f206008015f9054906101000a900473ffffffffffffffffffffffffffffffffffffffff1673ffffffffffffffffffffffffffffffffffffffff16146121bc576040517f08c379a00000000000000000000000000000000000000000000000000000000081526004016121b3906149f0565b60405180910390fd5b5f86116121fe576040517f08c379a00000000000000000000000000000000000000000000000000000000081526004016121f5906154f3565b60405180910390fd5b5f8511612240576040517f08c379a000000000000000000000000000000000000000000000000000000000815260040161223790615581565b60405180910390fd5b5f8411612282576040517f08c379a0000000000000000000000000000000000000000000000000000000008152600401612279906155e9565b60405180910390fd5b5f600b5f81548092919061229590614c01565b9190505590505f85426122a89190615066565b90505f60045f8481526020019081526020015f20905089815f01819055508881600101819055508781600201819055505f81600301819055508181600401819055505f816005015f6101000a81548173ffffffffffffffffffffffffffffffffffffffff021916908373ffffffffffffffffffffffffffffffffffffffff16021790555060018160050160146101000a81548160ff0219169083151502179055505f8160050160156101000a81548160ff02191690831515021790555089837f9e25642efdc6ee7df834068626252b30935971ff030e842e8d77df51426e0f2e8b8b8660405161239a93929190615607565b60405180910390a38295505050505050949350505050565b6123ba613cd5565b60035f8381526020019081526020015f20604051806101000160405290815f8201548152602001600182015f9054906101000a900473ffffffffffffffffffffffffffffffffffffffff1673ffffffffffffffffffffffffffffffffffffffff1673ffffffffffffffffffffffffffffffffffffffff1681526020016002820154815260200160038201548152602001600482015f9054906101000a900473ffffffffffffffffffffffffffffffffffffffff1673ffffffffffffffffffffffffffffffffffffffff1673ffffffffffffffffffffffffffffffffffffffff16815260200160058201548152602001600682015f9054906101000a900460ff161515151581526020016006820160019054906101000a900460ff1615151515815250509050919050565b6001602052805f5260405f205f91509050805f01805461250390614976565b80601f016020809104026020016040519081016040528092919081815260200182805461252f90614976565b801561257a5780601f106125515761010080835404028352916020019161257a565b820191905f5260205f20905b81548152906001019060200180831161255d57829003601f168201915b50505050509080600101805461258f90614976565b80601f01602080910402602001604051908101604052809291908181526020018280546125bb90614976565b80156126065780601f106125dd57610100808354040283529160200191612606565b820191905f5260205f20905b8154815290600101906020018083116125e957829003601f168201915b50505050509080600201805461261b90614976565b80601f016020809104026020016040519081016040528092919081815260200182805461264790614976565b80156126925780601f1061266957610100808354040283529160200191612692565b820191905f5260205f20905b81548152906001019060200180831161267557829003601f168201915b5050505050908060030180546126a790614976565b80601f01602080910402602001604051908101604052809291908181526020018280546126d390614976565b801561271e5780601f106126f55761010080835404028352916020019161271e565b820191905f5260205f20905b81548152906001019060200180831161270157829003601f168201915b50505050509080600401805461273390614976565b80601f016020809104026020016040519081016040528092919081815260200182805461275f90614976565b80156127aa5780601f10612781576101008083540402835291602001916127aa565b820191905f5260205f20905b81548152906001019060200180831161278d57829003601f168201915b505050505090806005015490806006015490806007015490806008015f9054906101000a900473ffffffffffffffffffffffffffffffffffffffff16908060080160149054906101000a900460ff1690806009015490508b565b600b5481565b612812613d42565b60025f8381526020019081526020015f206040518060a00160405290815f8201548152602001600182015f9054906101000a900473ffffffffffffffffffffffffffffffffffffffff1673ffffffffffffffffffffffffffffffffffffffff1673ffffffffffffffffffffffffffffffffffffffff1681526020016002820154815260200160038201548152602001600482015f9054906101000a900460ff1615151515815250509050919050565b8060035f8281526020019081526020015f206006015f9054906101000a900460ff16612922576040517f08c379a00000000000000000000000000000000000000000000000000000000081526004016129199061532d565b60405180910390fd5b60035f8281526020019081526020015f20600501544210612978576040517f08c379a000000000000000000000000000000000000000000000000000000000815260040161296f90615686565b60405180910390fd5b612980613c1c565b5f60035f8481526020019081526020015f209050806001015f9054906101000a900473ffffffffffffffffffffffffffffffffffffffff1673ffffffffffffffffffffffffffffffffffffffff163373ffffffffffffffffffffffffffffffffffffffff1603612a25576040517f08c379a0000000000000000000000000000000000000000000000000000000008152600401612a1c906156ee565b60405180910390fd5b80600201543410158015612a3c5750806003015434115b612a7b576040517f08c379a0000000000000000000000000000000000000000000000000000000008152600401612a7290615756565b60405180910390fd5b5f73ffffffffffffffffffffffffffffffffffffffff16816004015f9054906101000a900473ffffffffffffffffffffffffffffffffffffffff1673ffffffffffffffffffffffffffffffffffffffff1614612ba2575f816004015f9054906101000a900473ffffffffffffffffffffffffffffffffffffffff1673ffffffffffffffffffffffffffffffffffffffff168260030154604051612b1d90615197565b5f6040518083038185875af1925050503d805f8114612b57576040519150601f19603f3d011682016040523d82523d5f602084013e612b5c565b606091505b5050905080612ba0576040517f08c379a0000000000000000000000000000000000000000000000000000000008152600401612b97906157be565b60405180910390fd5b505b34816003018190555033816004015f6101000a81548173ffffffffffffffffffffffffffffffffffffffff021916908373ffffffffffffffffffffffffffffffffffffffff1602179055503373ffffffffffffffffffffffffffffffffffffffff16837f0e54eff26401bf69b81b26f60bd85ef47f5d85275c1d268d84f68d6897431c4734604051612c3491906143ba565b60405180910390a350612c45613c60565b5050565b600c5f9054906101000a900473ffffffffffffffffffffffffffffffffffffffff1673ffffffffffffffffffffffffffffffffffffffff163373ffffffffffffffffffffffffffffffffffffffff1614612cd8576040517f08c379a0000000000000000000000000000000000000000000000000000000008152600401612ccf90615826565b60405180910390fd5b5f73ffffffffffffffffffffffffffffffffffffffff168173ffffffffffffffffffffffffffffffffffffffff1603612d46576040517f08c379a0000000000000000000000000000000000000000000000000000000008152600401612d3d9061588e565b60405180910390fd5b80600c5f6101000a81548173ffffffffffffffffffffffffffffffffffffffff021916908373ffffffffffffffffffffffffffffffffffffffff16021790555050565b5f8360015f8281526020019081526020015f2060080160149054906101000a900460ff16612dec576040517f08c379a0000000000000000000000000000000000000000000000000000000008152600401612de390614f78565b60405180910390fd5b843373ffffffffffffffffffffffffffffffffffffffff1660015f8381526020019081526020015f206008015f9054906101000a900473ffffffffffffffffffffffffffffffffffffffff1673ffffffffffffffffffffffffffffffffffffffff1614612e8e576040517f08c379a0000000000000000000000000000000000000000000000000000000008152600401612e85906149f0565b60405180910390fd5b5f8511612ed0576040517f08c379a0000000000000000000000000000000000000000000000000000000008152600401612ec79061591c565b60405180910390fd5b5f8411612f12576040517f08c379a0000000000000000000000000000000000000000000000000000000008152600401612f09906155e9565b60405180910390fd5b5f600a5f815480929190612f2590614c01565b9190505590505f8542612f389190615066565b90506040518061010001604052808981526020013373ffffffffffffffffffffffffffffffffffffffff1681526020018881526020015f81526020015f73ffffffffffffffffffffffffffffffffffffffff1681526020018281526020016001151581526020015f151581525060035f8481526020019081526020015f205f820151815f01556020820151816001015f6101000a81548173ffffffffffffffffffffffffffffffffffffffff021916908373ffffffffffffffffffffffffffffffffffffffff16021790555060408201518160020155606082015181600301556080820151816004015f6101000a81548173ffffffffffffffffffffffffffffffffffffffff021916908373ffffffffffffffffffffffffffffffffffffffff16021790555060a0820151816005015560c0820151816006015f6101000a81548160ff02191690831515021790555060e08201518160060160016101000a81548160ff0219169083151502179055509050503373ffffffffffffffffffffffffffffffffffffffff1688837fc01e7da6ec06ecf5e1b887799549c755425a022ab59da72fa2d8c6255c10bc858a856040516130f492919061593a565b60405180910390a4819450505050509392505050565b6007602052815f5260405f20602052805f5260405f205f915091509054906101000a900460ff1681565b8160045f8281526020019081526020015f2060050160149054906101000a900460ff16613196576040517f08c379a000000000000000000000000000000000000000000000000000000000815260040161318d906159ab565b60405180910390fd5b60045f8281526020019081526020015f206004015442106131ec576040517f08c379a00000000000000000000000000000000000000000000000000000000081526004016131e390615a13565b60405180910390fd5b6131f4613c1c565b5f60045f8581526020019081526020015f2090505f831161324a576040517f08c379a000000000000000000000000000000000000000000000000000000000815260040161324190615a7b565b60405180910390fd5b806002015483826003015461325f9190615066565b11156132a0576040517f08c379a000000000000000000000000000000000000000000000000000000000815260040161329790615ae3565b60405180910390fd5b8281600101546132b09190615099565b3410156132f2576040517f08c379a00000000000000000000000000000000000000000000000000000000081526004016132e990615048565b60405180910390fd5b5f5f90505b83811015613431575f8260030154905033836006015f8381526020019081526020015f205f6101000a81548173ffffffffffffffffffffffffffffffffffffffff021916908373ffffffffffffffffffffffffffffffffffffffff160217905550826007015f3373ffffffffffffffffffffffffffffffffffffffff1673ffffffffffffffffffffffffffffffffffffffff1681526020019081526020015f2081908060018154018082558091505060019003905f5260205f20015f9091909190915055826003015f8154809291906133cf90614c01565b91905055503373ffffffffffffffffffffffffffffffffffffffff16867f79ecf3e3ea920d1ebe57106e55e4a292814a7174645fd1b838d68cb2edf7572c8360405161341b91906143ba565b60405180910390a35080806001019150506132f7565b505f8382600101546134439190615099565b905080341115613502575f3373ffffffffffffffffffffffffffffffffffffffff1682346134719190615137565b60405161347d90615197565b5f6040518083038185875af1925050503d805f81146134b7576040519150601f19603f3d011682016040523d82523d5f602084013e6134bc565b606091505b5050905080613500576040517f08c379a00000000000000000000000000000000000000000000000000000000081526004016134f7906152c5565b60405180910390fd5b505b505061350c613c60565b505050565b5f60075f8481526020019081526020015f205f8373ffffffffffffffffffffffffffffffffffffffff1673ffffffffffffffffffffffffffffffffffffffff1681526020019081526020015f205f9054906101000a900460ff16905092915050565b6103e881565b6005602052815f5260405f208181548110613592575f80fd5b905f5260205f20015f91509150505481565b60095481565b61271081565b6135b8613c1c565b5f60045f8381526020019081526020015f2090508060050160149054906101000a900460ff1661361d576040517f08c379a0000000000000000000000000000000000000000000000000000000008152600401613614906159ab565b60405180910390fd5b8060040154421015613664576040517f08c379a000000000000000000000000000000000000000000000000000000000815260040161365b90615b4b565b60405180910390fd5b8060050160159054906101000a900460ff16156136b6576040517f08c379a00000000000000000000000000000000000000000000000000000000081526004016136ad90615bb3565b60405180910390fd5b5f8160030154116136fc576040517f08c379a00000000000000000000000000000000000000000000000000000000081526004016136f390615c1b565b60405180910390fd5b5f8160050160146101000a81548160ff02191690831515021790555060018160050160156101000a81548160ff0219169083151502179055505f816003015442443360405160200161375093929190615c9e565b604051602081830303815290604052805190602001205f1c6137729190615cda565b90505f826006015f8381526020019081526020015f205f9054906101000a900473ffffffffffffffffffffffffffffffffffffffff16905080836005015f6101000a81548173ffffffffffffffffffffffffffffffffffffffff021916908373ffffffffffffffffffffffffffffffffffffffff1602179055505f60095f8154809291906137ff90614c01565b9190505590506040518060a00160405280855f015481526020018373ffffffffffffffffffffffffffffffffffffffff1681526020014281526020015f81526020016001151581525060025f8381526020019081526020015f205f820151815f01556020820151816001015f6101000a81548173ffffffffffffffffffffffffffffffffffffffff021916908373ffffffffffffffffffffffffffffffffffffffff16021790555060408201518160020155606082015181600301556080820151816004015f6101000a81548160ff021916908315150217905550905050600160075f865f015481526020019081526020015f205f8473ffffffffffffffffffffffffffffffffffffffff1673ffffffffffffffffffffffffffffffffffffffff1681526020019081526020015f205f6101000a81548160ff02191690831515021790555060065f8373ffffffffffffffffffffffffffffffffffffffff1673ffffffffffffffffffffffffffffffffffffffff1681526020019081526020015f2081908060018154018082558091505060019003905f5260205f20015f90919091909150555f846003015485600101546139ba9190615099565b90505f61271060fa836139cd9190615099565b6139d79190615107565b90505f81836139e69190615137565b90505f600c5f9054906101000a900473ffffffffffffffffffffffffffffffffffffffff1673ffffffffffffffffffffffffffffffffffffffff1683604051613a2e90615197565b5f6040518083038185875af1925050503d805f8114613a68576040519150601f19603f3d011682016040523d82523d5f602084013e613a6d565b606091505b5050905080613ab1576040517f08c379a0000000000000000000000000000000000000000000000000000000008152600401613aa8906151f5565b60405180910390fd5b5f60015f8a5f015481526020019081526020015f206008015f9054906101000a900473ffffffffffffffffffffffffffffffffffffffff1673ffffffffffffffffffffffffffffffffffffffff1683604051613b0c90615197565b5f6040518083038185875af1925050503d805f8114613b46576040519150601f19603f3d011682016040523d82523d5f602084013e613b4b565b606091505b5050905080613b8f576040517f08c379a0000000000000000000000000000000000000000000000000000000008152600401613b869061525d565b60405180910390fd5b8673ffffffffffffffffffffffffffffffffffffffff168a7e652a3ba943cc7f2cb9cd5e88040a5a9f205687ce18c495543ba7cf8325c87a8a604051613bd591906143ba565b60405180910390a3505050505050505050613bee613c60565b50565b600c5f9054906101000a900473ffffffffffffffffffffffffffffffffffffffff1681565b600a5481565b60025f5403613c57576040517f3ee5aeb500000000000000000000000000000000000000000000000000000000815260040160405180910390fd5b60025f81905550565b60015f81905550565b60405180610160016040528060608152602001606081526020016060815260200160608152602001606081526020015f81526020015f81526020015f81526020015f73ffffffffffffffffffffffffffffffffffffffff1681526020015f151581526020015f81525090565b6040518061010001604052805f81526020015f73ffffffffffffffffffffffffffffffffffffffff1681526020015f81526020015f81526020015f73ffffffffffffffffffffffffffffffffffffffff1681526020015f81526020015f151581526020015f151581525090565b6040518060a001604052805f81526020015f73ffffffffffffffffffffffffffffffffffffffff1681526020015f81526020015f81526020015f151581525090565b5f82825260208201905092915050565b7f446972656374207061796d656e7473206e6f74206163636570746564000000005f82015250565b5f613dc8601c83613d84565b9150613dd382613d94565b602082019050919050565b5f6020820190508181035f830152613df581613dbc565b9050919050565b5f604051905090565b5f5ffd5b5f5ffd5b5f819050919050565b613e1f81613e0d565b8114613e29575f5ffd5b50565b5f81359050613e3a81613e16565b92915050565b5f60208284031215613e5557613e54613e05565b5b5f613e6284828501613e2c565b91505092915050565b613e7481613e0d565b82525050565b5f73ffffffffffffffffffffffffffffffffffffffff82169050919050565b5f613ea382613e7a565b9050919050565b613eb381613e99565b82525050565b5f8115159050919050565b613ecd81613eb9565b82525050565b5f60a082019050613ee65f830188613e6b565b613ef36020830187613eaa565b613f006040830186613e6b565b613f0d6060830185613e6b565b613f1a6080830184613ec4565b9695505050505050565b5f81519050919050565b5f82825260208201905092915050565b8281835e5f83830152505050565b5f601f19601f8301169050919050565b5f613f6682613f24565b613f708185613f2e565b9350613f80818560208601613f3e565b613f8981613f4c565b840191505092915050565b613f9d81613e0d565b82525050565b613fac81613e99565b82525050565b613fbb81613eb9565b82525050565b5f61016083015f8301518482035f860152613fdc8282613f5c565b91505060208301518482036020860152613ff68282613f5c565b915050604083015184820360408601526140108282613f5c565b9150506060830151848203606086015261402a8282613f5c565b915050608083015184820360808601526140448282613f5c565b91505060a083015161405960a0860182613f94565b5060c083015161406c60c0860182613f94565b5060e083015161407f60e0860182613f94565b50610100830151614094610100860182613fa3565b506101208301516140a9610120860182613fb2565b506101408301516140be610140860182613f94565b508091505092915050565b5f6020820190508181035f8301526140e18184613fc1565b905092915050565b5f610100820190506140fd5f83018b613e6b565b61410a602083018a613e6b565b6141176040830189613e6b565b6141246060830188613e6b565b6141316080830187613e6b565b61413e60a0830186613eaa565b61414b60c0830185613ec4565b61415860e0830184613ec4565b9998505050505050505050565b5f5ffd5b5f5ffd5b7f4e487b71000000000000000000000000000000000000000000000000000000005f52604160045260245ffd5b6141a382613f4c565b810181811067ffffffffffffffff821117156141c2576141c161416d565b5b80604052505050565b5f6141d4613dfc565b90506141e0828261419a565b919050565b5f67ffffffffffffffff8211156141ff576141fe61416d565b5b61420882613f4c565b9050602081019050919050565b828183375f83830152505050565b5f614235614230846141e5565b6141cb565b90508281526020810184848401111561425157614250614169565b5b61425c848285614215565b509392505050565b5f82601f83011261427857614277614165565b5b8135614288848260208601614223565b91505092915050565b5f5f5f5f5f5f5f60e0888a0312156142ac576142ab613e05565b5b5f88013567ffffffffffffffff8111156142c9576142c8613e09565b5b6142d58a828b01614264565b975050602088013567ffffffffffffffff8111156142f6576142f5613e09565b5b6143028a828b01614264565b965050604088013567ffffffffffffffff81111561432357614322613e09565b5b61432f8a828b01614264565b955050606088013567ffffffffffffffff8111156143505761434f613e09565b5b61435c8a828b01614264565b945050608088013567ffffffffffffffff81111561437d5761437c613e09565b5b6143898a828b01614264565b93505060a061439a8a828b01613e2c565b92505060c06143ab8a828b01613e2c565b91505092959891949750929550565b5f6020820190506143cd5f830184613e6b565b92915050565b5f5f604083850312156143e9576143e8613e05565b5b5f6143f685828601613e2c565b925050602061440785828601613e2c565b9150509250929050565b61441a81613e99565b8114614424575f5ffd5b50565b5f8135905061443581614411565b92915050565b5f602082840312156144505761444f613e05565b5b5f61445d84828501614427565b91505092915050565b5f81519050919050565b5f82825260208201905092915050565b5f819050602082019050919050565b5f61449a8383613f94565b60208301905092915050565b5f602082019050919050565b5f6144bc82614466565b6144c68185614470565b93506144d183614480565b805f5b838110156145015781516144e8888261448f565b97506144f3836144a6565b9250506001810190506144d4565b5085935050505092915050565b5f6020820190508181035f83015261452681846144b2565b905092915050565b5f5f6040838503121561454457614543613e05565b5b5f61455185828601613e2c565b925050602061456285828601614427565b9150509250929050565b5f5f6040838503121561458257614581613e05565b5b5f61458f85828601614427565b92505060206145a085828601613e2c565b9150509250929050565b5f610100820190506145be5f83018b613e6b565b6145cb602083018a613eaa565b6145d86040830189613e6b565b6145e56060830188613e6b565b6145f26080830187613eaa565b6145ff60a0830186613e6b565b61460c60c0830185613ec4565b61461960e0830184613ec4565b9998505050505050505050565b5f5f5f5f6080858703121561463e5761463d613e05565b5b5f61464b87828801613e2c565b945050602061465c87828801613e2c565b935050604061466d87828801613e2c565b925050606061467e87828801613e2c565b91505092959194509250565b61010082015f82015161469f5f850182613f94565b5060208201516146b26020850182613fa3565b5060408201516146c56040850182613f94565b5060608201516146d86060850182613f94565b5060808201516146eb6080850182613fa3565b5060a08201516146fe60a0850182613f94565b5060c082015161471160c0850182613fb2565b5060e082015161472460e0850182613fb2565b50505050565b5f6101008201905061473e5f83018461468a565b92915050565b5f61474e82613f24565b6147588185613d84565b9350614768818560208601613f3e565b61477181613f4c565b840191505092915050565b5f610160820190508181035f830152614795818e614744565b905081810360208301526147a9818d614744565b905081810360408301526147bd818c614744565b905081810360608301526147d1818b614744565b905081810360808301526147e5818a614744565b90506147f460a0830189613e6b565b61480160c0830188613e6b565b61480e60e0830187613e6b565b61481c610100830186613eaa565b61482a610120830185613ec4565b614838610140830184613e6b565b9c9b505050505050505050505050565b60a082015f82015161485c5f850182613f94565b50602082015161486f6020850182613fa3565b5060408201516148826040850182613f94565b5060608201516148956060850182613f94565b5060808201516148a86080850182613fb2565b50505050565b5f60a0820190506148c15f830184614848565b92915050565b5f5f5f606084860312156148de576148dd613e05565b5b5f6148eb86828701613e2c565b93505060206148fc86828701613e2c565b925050604061490d86828701613e2c565b9150509250925092565b5f60208201905061492a5f830184613ec4565b92915050565b5f6020820190506149435f830184613eaa565b92915050565b7f4e487b71000000000000000000000000000000000000000000000000000000005f52602260045260245ffd5b5f600282049050600182168061498d57607f821691505b6020821081036149a05761499f614949565b5b50919050565b7f4e6f74207468652063726561746f7200000000000000000000000000000000005f82015250565b5f6149da600f83613d84565b91506149e5826149a6565b602082019050919050565b5f6020820190508181035f830152614a07816149ce565b9050919050565b7f4e616d65207265717569726564000000000000000000000000000000000000005f82015250565b5f614a42600d83613d84565b9150614a4d82614a0e565b602082019050919050565b5f6020820190508181035f830152614a6f81614a36565b9050919050565b7f436f6e74656e74206861736820726571756972656400000000000000000000005f82015250565b5f614aaa601583613d84565b9150614ab582614a76565b602082019050919050565b5f6020820190508181035f830152614ad781614a9e565b9050919050565b7f5072696365206d7573742062652067726561746572207468616e2030000000005f82015250565b5f614b12601c83613d84565b9150614b1d82614ade565b602082019050919050565b5f6020820190508181035f830152614b3f81614b06565b9050919050565b7f546f74616c20737570706c79206d7573742062652067726561746572207468615f8201527f6e20300000000000000000000000000000000000000000000000000000000000602082015250565b5f614ba0602383613d84565b9150614bab82614b46565b604082019050919050565b5f6020820190508181035f830152614bcd81614b94565b9050919050565b7f4e487b71000000000000000000000000000000000000000000000000000000005f52601160045260245ffd5b5f614c0b82613e0d565b91507fffffffffffffffffffffffffffffffffffffffffffffffffffffffffffffffff8203614c3d57614c3c614bd4565b5b600182019050919050565b5f819050815f5260205f209050919050565b5f6020601f8301049050919050565b5f82821b905092915050565b5f60088302614ca47fffffffffffffffffffffffffffffffffffffffffffffffffffffffffffffffff82614c69565b614cae8683614c69565b95508019841693508086168417925050509392505050565b5f819050919050565b5f614ce9614ce4614cdf84613e0d565b614cc6565b613e0d565b9050919050565b5f819050919050565b614d0283614ccf565b614d16614d0e82614cf0565b848454614c75565b825550505050565b5f5f905090565b614d2d614d1e565b614d38818484614cf9565b505050565b5b81811015614d5b57614d505f82614d25565b600181019050614d3e565b5050565b601f821115614da057614d7181614c48565b614d7a84614c5a565b81016020851015614d89578190505b614d9d614d9585614c5a565b830182614d3d565b50505b505050565b5f82821c905092915050565b5f614dc05f1984600802614da5565b1980831691505092915050565b5f614dd88383614db1565b9150826002028217905092915050565b614df182613f24565b67ffffffffffffffff811115614e0a57614e0961416d565b5b614e148254614976565b614e1f828285614d5f565b5f60209050601f831160018114614e50575f8415614e3e578287015190505b614e488582614dcd565b865550614eaf565b601f198416614e5e86614c48565b5f5b82811015614e8557848901518255600182019150602085019450602081019050614e60565b86831015614ea25784890151614e9e601f891682614db1565b8355505b6001600288020188555050505b505050505050565b5f6080820190508181035f830152614ecf8187614744565b90508181036020830152614ee38186614744565b9050614ef26040830185613e6b565b614eff6060830184613e6b565b95945050505050565b7f495020746f6b656e20646f6573206e6f74206578697374206f7220696e6163745f8201527f6976650000000000000000000000000000000000000000000000000000000000602082015250565b5f614f62602383613d84565b9150614f6d82614f08565b604082019050919050565b5f6020820190508181035f830152614f8f81614f56565b9050919050565b7f416c6c2061636365737320746f6b656e7320736f6c64000000000000000000005f82015250565b5f614fca601683613d84565b9150614fd582614f96565b602082019050919050565b5f6020820190508181035f830152614ff781614fbe565b9050919050565b7f496e73756666696369656e74207061796d656e740000000000000000000000005f82015250565b5f615032601483613d84565b915061503d82614ffe565b602082019050919050565b5f6020820190508181035f83015261505f81615026565b9050919050565b5f61507082613e0d565b915061507b83613e0d565b925082820190508082111561509357615092614bd4565b5b92915050565b5f6150a382613e0d565b91506150ae83613e0d565b92508282026150bc81613e0d565b915082820484148315176150d3576150d2614bd4565b5b5092915050565b7f4e487b71000000000000000000000000000000000000000000000000000000005f52601260045260245ffd5b5f61511182613e0d565b915061511c83613e0d565b92508261512c5761512b6150da565b5b828204905092915050565b5f61514182613e0d565b915061514c83613e0d565b925082820390508181111561516457615163614bd4565b5b92915050565b5f81905092915050565b50565b5f6151825f8361516a565b915061518d82615174565b5f82019050919050565b5f6151a182615177565b9150819050919050565b7f506c6174666f726d20666565207472616e73666572206661696c6564000000005f82015250565b5f6151df601c83613d84565b91506151ea826151ab565b602082019050919050565b5f6020820190508181035f83015261520c816151d3565b9050919050565b7f43726561746f72207061796d656e74206661696c6564000000000000000000005f82015250565b5f615247601683613d84565b915061525282615213565b602082019050919050565b5f6020820190508181035f8301526152748161523b565b9050919050565b7f526566756e64206661696c6564000000000000000000000000000000000000005f82015250565b5f6152af600d83613d84565b91506152ba8261527b565b602082019050919050565b5f6020820190508181035f8301526152dc816152a3565b9050919050565b7f41756374696f6e206e6f742061637469766500000000000000000000000000005f82015250565b5f615317601283613d84565b9150615322826152e3565b602082019050919050565b5f6020820190508181035f8301526153448161530b565b9050919050565b7f41756374696f6e207374696c6c206f6e676f696e6700000000000000000000005f82015250565b5f61537f601583613d84565b915061538a8261534b565b602082019050919050565b5f6020820190508181035f8301526153ac81615373565b9050919050565b7f41756374696f6e20616c726561647920736574746c65640000000000000000005f82015250565b5f6153e7601783613d84565b91506153f2826153b3565b602082019050919050565b5f6020820190508181035f830152615414816153db565b9050919050565b7f53656c6c6572207061796d656e74206661696c656400000000000000000000005f82015250565b5f61544f601583613d84565b915061545a8261541b565b602082019050919050565b5f6020820190508181035f83015261547c81615443565b9050919050565b7f5469636b6574207072696365206d7573742062652067726561746572207468615f8201527f6e20300000000000000000000000000000000000000000000000000000000000602082015250565b5f6154dd602383613d84565b91506154e882615483565b604082019050919050565b5f6020820190508181035f83015261550a816154d1565b9050919050565b7f4d6178207469636b657473206d7573742062652067726561746572207468616e5f8201527f2030000000000000000000000000000000000000000000000000000000000000602082015250565b5f61556b602283613d84565b915061557682615511565b604082019050919050565b5f6020820190508181035f8301526155988161555f565b9050919050565b7f4475726174696f6e206d7573742062652067726561746572207468616e2030005f82015250565b5f6155d3601f83613d84565b91506155de8261559f565b602082019050919050565b5f6020820190508181035f830152615600816155c7565b9050919050565b5f60608201905061561a5f830186613e6b565b6156276020830185613e6b565b6156346040830184613e6b565b949350505050565b7f41756374696f6e20656e646564000000000000000000000000000000000000005f82015250565b5f615670600d83613d84565b915061567b8261563c565b602082019050919050565b5f6020820190508181035f83015261569d81615664565b9050919050565b7f53656c6c65722063616e6e6f74206269640000000000000000000000000000005f82015250565b5f6156d8601183613d84565b91506156e3826156a4565b602082019050919050565b5f6020820190508181035f830152615705816156cc565b9050919050565b7f42696420746f6f206c6f770000000000000000000000000000000000000000005f82015250565b5f615740600b83613d84565b915061574b8261570c565b602082019050919050565b5f6020820190508181035f83015261576d81615734565b9050919050565b7f4661696c656420746f20726566756e642070726576696f7573206269646465725f82015250565b5f6157a8602083613d84565b91506157b382615774565b602082019050919050565b5f6020820190508181035f8301526157d58161579c565b9050919050565b7f4f6e6c7920706c6174666f726d2077616c6c65742063616e20757064617465005f82015250565b5f615810601f83613d84565b915061581b826157dc565b602082019050919050565b5f6020820190508181035f83015261583d81615804565b9050919050565b7f496e76616c69642077616c6c65742061646472657373000000000000000000005f82015250565b5f615878601683613d84565b915061588382615844565b602082019050919050565b5f6020820190508181035f8301526158a58161586c565b9050919050565b7f5374617274696e6720626964206d7573742062652067726561746572207468615f8201527f6e20300000000000000000000000000000000000000000000000000000000000602082015250565b5f615906602383613d84565b9150615911826158ac565b604082019050919050565b5f6020820190508181035f830152615933816158fa565b9050919050565b5f60408201905061594d5f830185613e6b565b61595a6020830184613e6b565b9392505050565b7f4c6f7474657279206e6f742061637469766500000000000000000000000000005f82015250565b5f615995601283613d84565b91506159a082615961565b602082019050919050565b5f6020820190508181035f8301526159c281615989565b9050919050565b7f4c6f747465727920656e646564000000000000000000000000000000000000005f82015250565b5f6159fd600d83613d84565b9150615a08826159c9565b602082019050919050565b5f6020820190508181035f830152615a2a816159f1565b9050919050565b7f4d75737420627579206174206c65617374206f6e65207469636b6574000000005f82015250565b5f615a65601c83613d84565b9150615a7082615a31565b602082019050919050565b5f6020820190508181035f830152615a9281615a59565b9050919050565b7f4e6f7420656e6f756768207469636b65747320617661696c61626c65000000005f82015250565b5f615acd601c83613d84565b9150615ad882615a99565b602082019050919050565b5f6020820190508181035f830152615afa81615ac1565b9050919050565b7f447261772074696d65206e6f74207265616368656400000000000000000000005f82015250565b5f615b35601583613d84565b9150615b4082615b01565b602082019050919050565b5f6020820190508181035f830152615b6281615b29565b9050919050565b7f4c6f747465727920616c726561647920647261776e00000000000000000000005f82015250565b5f615b9d601583613d84565b9150615ba882615b69565b602082019050919050565b5f6020820190508181035f830152615bca81615b91565b9050919050565b7f4e6f207469636b65747320736f6c6400000000000000000000000000000000005f82015250565b5f615c05600f83613d84565b9150615c1082615bd1565b602082019050919050565b5f6020820190508181035f830152615c3281615bf9565b9050919050565b5f819050919050565b615c53615c4e82613e0d565b615c39565b82525050565b5f8160601b9050919050565b5f615c6f82615c59565b9050919050565b5f615c8082615c65565b9050919050565b615c98615c9382613e99565b615c76565b82525050565b5f615ca98286615c42565b602082019150615cb98285615c42565b602082019150615cc98284615c87565b601482019150819050949350505050565b5f615ce482613e0d565b9150615cef83613e0d565b925082615cff57615cfe6150da565b5b82820690509291505056fea26469706673582212200e891b4c8754b2909cde6072ff6a6fd6e2da7d41fc48d526e8be6470cb467e5864736f6c634300081e0033","linkReferences":{}},"methodIdentifiers":{"BASIS_POINTS()":"e1f1c4a7","MAX_ROYALTY()":"d83e5f4d","PLATFORM_FEE()":"34fbc9a1","accessTokens(uint256)":"00af701f","auctions(uint256)":"571a26a0","buyAccess(uint256,uint256)":"2cdc2534","buyLotteryTickets(uint256,uint256)":"d00e7978","checkAccess(uint256,address)":"d13c8703","createAuction(uint256,uint256,uint256)":"cda4beef","createIP(string,string,string,string,string,uint256,uint256)":"298b802b","createLottery(uint256,uint256,uint256,uint256)":"75f22a57","creatorTokens(address,uint256)":"db3fa4cc","drawLottery(uint256)":"e303a92b","getAccessToken(uint256)":"991acf6e","getAuction(uint256)":"78bd7935","getCreatorTokens(address)":"74abfa54","getIPToken(uint256)":"0414a713","getUserAccessTokens(address)":"41a3e475","getUserLotteryTickets(uint256,address)":"499667e8","hasAccess(uint256,address)":"ced14198","ipTokens(uint256)":"7fdbed37","lotteries(uint256)":"1398e076","nextAccessTokenId()":"dc075b80","nextAuctionId()":"fc528482","nextIPTokenId()":"582e62c3","nextLotteryId()":"8009df68","pauseIPToken(uint256)":"20f1fd9a","placeBid(uint256)":"9979ef45","platformWallet()":"fa2af9da","settleAuction(uint256)":"2e993611","unpauseIPToken(uint256)":"44da04a7","updatePlatformWallet(address)":"ada4ef30","userAccessTokens(address,uint256)":"4a5b3fd3"},"id":19}